{
	"data": {
		"bytecode": {
			"linkReferences": {},
			"object": "6080604052348015600e575f80fd5b50610c6d8061001c5f395ff3fe608060405234801561000f575f80fd5b506004361061004a575f3560e01c80632419c0db1461004e57806336c986771461006a57806340554c3a1461009a57806398c9adff146100b6575b5f80fd5b610068600480360381019061006391906105e0565b6100e9565b005b610084600480360381019061007f919061069b565b61019d565b60405161009191906106e0565b60405180910390f35b6100b460048036038101906100af9190610753565b610200565b005b6100d060048036038101906100cb919061069b565b61030a565b6040516100e0949392919061080f565b60405180910390f35b5f83336040516020016100fd9291906108df565b6040516020818303038152906040528051906020012090505f805f8381526020019081526020015f20905084815f0190816101389190610b00565b508381600101908161014a9190610b00565b5082816002018190555033816003015f6101000a81548173ffffffffffffffffffffffffffffffffffffffff021916908373ffffffffffffffffffffffffffffffffffffffff1602179055505050505050565b5f805f8381526020019081526020015f206004015f3373ffffffffffffffffffffffffffffffffffffffff1673ffffffffffffffffffffffffffffffffffffffff1681526020019081526020015f205f9054906101000a900460ff169050919050565b3373ffffffffffffffffffffffffffffffffffffffff165f808481526020019081526020015f206003015f9054906101000a900473ffffffffffffffffffffffffffffffffffffffff1673ffffffffffffffffffffffffffffffffffffffff16146102a0576040517f08c379a000000000000000000000000000000000000000000000000000000000815260040161029790610c19565b60405180910390fd5b60015f808481526020019081526020015f206004015f8373ffffffffffffffffffffffffffffffffffffffff1673ffffffffffffffffffffffffffffffffffffffff1681526020019081526020015f205f6101000a81548160ff0219169083151502179055505050565b5f602052805f5260405f205f91509050805f01805461032890610933565b80601f016020809104026020016040519081016040528092919081815260200182805461035490610933565b801561039f5780601f106103765761010080835404028352916020019161039f565b820191905f5260205f20905b81548152906001019060200180831161038257829003601f168201915b5050505050908060010180546103b490610933565b80601f01602080910402602001604051908101604052809291908181526020018280546103e090610933565b801561042b5780601f106104025761010080835404028352916020019161042b565b820191905f5260205f20905b81548152906001019060200180831161040e57829003601f168201915b505050505090806002015490806003015f9054906101000a900473ffffffffffffffffffffffffffffffffffffffff16905084565b5f604051905090565b5f80fd5b5f80fd5b5f80fd5b5f80fd5b5f601f19601f8301169050919050565b7f4e487b71000000000000000000000000000000000000000000000000000000005f52604160045260245ffd5b6104bf82610479565b810181811067ffffffffffffffff821117156104de576104dd610489565b5b80604052505050565b5f6104f0610460565b90506104fc82826104b6565b919050565b5f67ffffffffffffffff82111561051b5761051a610489565b5b61052482610479565b9050602081019050919050565b828183375f83830152505050565b5f61055161054c84610501565b6104e7565b90508281526020810184848401111561056d5761056c610475565b5b610578848285610531565b509392505050565b5f82601f83011261059457610593610471565b5b81356105a484826020860161053f565b91505092915050565b5f819050919050565b6105bf816105ad565b81146105c9575f80fd5b50565b5f813590506105da816105b6565b92915050565b5f805f606084860312156105f7576105f6610469565b5b5f84013567ffffffffffffffff8111156106145761061361046d565b5b61062086828701610580565b935050602084013567ffffffffffffffff8111156106415761064061046d565b5b61064d86828701610580565b925050604061065e868287016105cc565b9150509250925092565b5f819050919050565b61067a81610668565b8114610684575f80fd5b50565b5f8135905061069581610671565b92915050565b5f602082840312156106b0576106af610469565b5b5f6106bd84828501610687565b91505092915050565b5f8115159050919050565b6106da816106c6565b82525050565b5f6020820190506106f35f8301846106d1565b92915050565b5f73ffffffffffffffffffffffffffffffffffffffff82169050919050565b5f610722826106f9565b9050919050565b61073281610718565b811461073c575f80fd5b50565b5f8135905061074d81610729565b92915050565b5f806040838503121561076957610768610469565b5b5f61077685828601610687565b92505060206107878582860161073f565b9150509250929050565b5f81519050919050565b5f82825260208201905092915050565b8281835e5f83830152505050565b5f6107c382610791565b6107cd818561079b565b93506107dd8185602086016107ab565b6107e681610479565b840191505092915050565b6107fa816105ad565b82525050565b61080981610718565b82525050565b5f6080820190508181035f83015261082781876107b9565b9050818103602083015261083b81866107b9565b905061084a60408301856107f1565b6108576060830184610800565b95945050505050565b5f81905092915050565b5f61087482610791565b61087e8185610860565b935061088e8185602086016107ab565b80840191505092915050565b5f8160601b9050919050565b5f6108b08261089a565b9050919050565b5f6108c1826108a6565b9050919050565b6108d96108d482610718565b6108b7565b82525050565b5f6108ea828561086a565b91506108f682846108c8565b6014820191508190509392505050565b7f4e487b71000000000000000000000000000000000000000000000000000000005f52602260045260245ffd5b5f600282049050600182168061094a57607f821691505b60208210810361095d5761095c610906565b5b50919050565b5f819050815f5260205f209050919050565b5f6020601f8301049050919050565b5f82821b905092915050565b5f600883026109bf7fffffffffffffffffffffffffffffffffffffffffffffffffffffffffffffffff82610984565b6109c98683610984565b95508019841693508086168417925050509392505050565b5f819050919050565b5f610a046109ff6109fa846105ad565b6109e1565b6105ad565b9050919050565b5f819050919050565b610a1d836109ea565b610a31610a2982610a0b565b848454610990565b825550505050565b5f90565b610a45610a39565b610a50818484610a14565b505050565b5b81811015610a7357610a685f82610a3d565b600181019050610a56565b5050565b601f821115610ab857610a8981610963565b610a9284610975565b81016020851015610aa1578190505b610ab5610aad85610975565b830182610a55565b50505b505050565b5f82821c905092915050565b5f610ad85f1984600802610abd565b1980831691505092915050565b5f610af08383610ac9565b9150826002028217905092915050565b610b0982610791565b67ffffffffffffffff811115610b2257610b21610489565b5b610b2c8254610933565b610b37828285610a77565b5f60209050601f831160018114610b68575f8415610b56578287015190505b610b608582610ae5565b865550610bc7565b601f198416610b7686610963565b5f5b82811015610b9d57848901518255600182019150602085019450602081019050610b78565b86831015610bba5784890151610bb6601f891682610ac9565b8355505b6001600288020188555050505b505050505050565b7f4e6f7420746865206f776e6572000000000000000000000000000000000000005f82015250565b5f610c03600d8361079b565b9150610c0e82610bcf565b602082019050919050565b5f6020820190508181035f830152610c3081610bf7565b905091905056fea264697066735822122021465d35de019b3f9b494f2e32aef928ef7128d13907061969cec6bf0657329c64736f6c634300081a0033",
			"opcodes": "PUSH1 0x80 PUSH1 0x40 MSTORE CALLVALUE DUP1 ISZERO PUSH1 0xE JUMPI PUSH0 DUP1 REVERT JUMPDEST POP PUSH2 0xC6D DUP1 PUSH2 0x1C PUSH0 CODECOPY PUSH0 RETURN INVALID PUSH1 0x80 PUSH1 0x40 MSTORE CALLVALUE DUP1 ISZERO PUSH2 0xF JUMPI PUSH0 DUP1 REVERT JUMPDEST POP PUSH1 0x4 CALLDATASIZE LT PUSH2 0x4A JUMPI PUSH0 CALLDATALOAD PUSH1 0xE0 SHR DUP1 PUSH4 0x2419C0DB EQ PUSH2 0x4E JUMPI DUP1 PUSH4 0x36C98677 EQ PUSH2 0x6A JUMPI DUP1 PUSH4 0x40554C3A EQ PUSH2 0x9A JUMPI DUP1 PUSH4 0x98C9ADFF EQ PUSH2 0xB6 JUMPI JUMPDEST PUSH0 DUP1 REVERT JUMPDEST PUSH2 0x68 PUSH1 0x4 DUP1 CALLDATASIZE SUB DUP2 ADD SWAP1 PUSH2 0x63 SWAP2 SWAP1 PUSH2 0x5E0 JUMP JUMPDEST PUSH2 0xE9 JUMP JUMPDEST STOP JUMPDEST PUSH2 0x84 PUSH1 0x4 DUP1 CALLDATASIZE SUB DUP2 ADD SWAP1 PUSH2 0x7F SWAP2 SWAP1 PUSH2 0x69B JUMP JUMPDEST PUSH2 0x19D JUMP JUMPDEST PUSH1 0x40 MLOAD PUSH2 0x91 SWAP2 SWAP1 PUSH2 0x6E0 JUMP JUMPDEST PUSH1 0x40 MLOAD DUP1 SWAP2 SUB SWAP1 RETURN JUMPDEST PUSH2 0xB4 PUSH1 0x4 DUP1 CALLDATASIZE SUB DUP2 ADD SWAP1 PUSH2 0xAF SWAP2 SWAP1 PUSH2 0x753 JUMP JUMPDEST PUSH2 0x200 JUMP JUMPDEST STOP JUMPDEST PUSH2 0xD0 PUSH1 0x4 DUP1 CALLDATASIZE SUB DUP2 ADD SWAP1 PUSH2 0xCB SWAP2 SWAP1 PUSH2 0x69B JUMP JUMPDEST PUSH2 0x30A JUMP JUMPDEST PUSH1 0x40 MLOAD PUSH2 0xE0 SWAP5 SWAP4 SWAP3 SWAP2 SWAP1 PUSH2 0x80F JUMP JUMPDEST PUSH1 0x40 MLOAD DUP1 SWAP2 SUB SWAP1 RETURN JUMPDEST PUSH0 DUP4 CALLER PUSH1 0x40 MLOAD PUSH1 0x20 ADD PUSH2 0xFD SWAP3 SWAP2 SWAP1 PUSH2 0x8DF JUMP JUMPDEST PUSH1 0x40 MLOAD PUSH1 0x20 DUP2 DUP4 SUB SUB DUP2 MSTORE SWAP1 PUSH1 0x40 MSTORE DUP1 MLOAD SWAP1 PUSH1 0x20 ADD KECCAK256 SWAP1 POP PUSH0 DUP1 PUSH0 DUP4 DUP2 MSTORE PUSH1 0x20 ADD SWAP1 DUP2 MSTORE PUSH1 0x20 ADD PUSH0 KECCAK256 SWAP1 POP DUP5 DUP2 PUSH0 ADD SWAP1 DUP2 PUSH2 0x138 SWAP2 SWAP1 PUSH2 0xB00 JUMP JUMPDEST POP DUP4 DUP2 PUSH1 0x1 ADD SWAP1 DUP2 PUSH2 0x14A SWAP2 SWAP1 PUSH2 0xB00 JUMP JUMPDEST POP DUP3 DUP2 PUSH1 0x2 ADD DUP2 SWAP1 SSTORE POP CALLER DUP2 PUSH1 0x3 ADD PUSH0 PUSH2 0x100 EXP DUP2 SLOAD DUP2 PUSH20 0xFFFFFFFFFFFFFFFFFFFFFFFFFFFFFFFFFFFFFFFF MUL NOT AND SWAP1 DUP4 PUSH20 0xFFFFFFFFFFFFFFFFFFFFFFFFFFFFFFFFFFFFFFFF AND MUL OR SWAP1 SSTORE POP POP POP POP POP POP JUMP JUMPDEST PUSH0 DUP1 PUSH0 DUP4 DUP2 MSTORE PUSH1 0x20 ADD SWAP1 DUP2 MSTORE PUSH1 0x20 ADD PUSH0 KECCAK256 PUSH1 0x4 ADD PUSH0 CALLER PUSH20 0xFFFFFFFFFFFFFFFFFFFFFFFFFFFFFFFFFFFFFFFF AND PUSH20 0xFFFFFFFFFFFFFFFFFFFFFFFFFFFFFFFFFFFFFFFF AND DUP2 MSTORE PUSH1 0x20 ADD SWAP1 DUP2 MSTORE PUSH1 0x20 ADD PUSH0 KECCAK256 PUSH0 SWAP1 SLOAD SWAP1 PUSH2 0x100 EXP SWAP1 DIV PUSH1 0xFF AND SWAP1 POP SWAP2 SWAP1 POP JUMP JUMPDEST CALLER PUSH20 0xFFFFFFFFFFFFFFFFFFFFFFFFFFFFFFFFFFFFFFFF AND PUSH0 DUP1 DUP5 DUP2 MSTORE PUSH1 0x20 ADD SWAP1 DUP2 MSTORE PUSH1 0x20 ADD PUSH0 KECCAK256 PUSH1 0x3 ADD PUSH0 SWAP1 SLOAD SWAP1 PUSH2 0x100 EXP SWAP1 DIV PUSH20 0xFFFFFFFFFFFFFFFFFFFFFFFFFFFFFFFFFFFFFFFF AND PUSH20 0xFFFFFFFFFFFFFFFFFFFFFFFFFFFFFFFFFFFFFFFF AND EQ PUSH2 0x2A0 JUMPI PUSH1 0x40 MLOAD PUSH32 0x8C379A000000000000000000000000000000000000000000000000000000000 DUP2 MSTORE PUSH1 0x4 ADD PUSH2 0x297 SWAP1 PUSH2 0xC19 JUMP JUMPDEST PUSH1 0x40 MLOAD DUP1 SWAP2 SUB SWAP1 REVERT JUMPDEST PUSH1 0x1 PUSH0 DUP1 DUP5 DUP2 MSTORE PUSH1 0x20 ADD SWAP1 DUP2 MSTORE PUSH1 0x20 ADD PUSH0 KECCAK256 PUSH1 0x4 ADD PUSH0 DUP4 PUSH20 0xFFFFFFFFFFFFFFFFFFFFFFFFFFFFFFFFFFFFFFFF AND PUSH20 0xFFFFFFFFFFFFFFFFFFFFFFFFFFFFFFFFFFFFFFFF AND DUP2 MSTORE PUSH1 0x20 ADD SWAP1 DUP2 MSTORE PUSH1 0x20 ADD PUSH0 KECCAK256 PUSH0 PUSH2 0x100 EXP DUP2 SLOAD DUP2 PUSH1 0xFF MUL NOT AND SWAP1 DUP4 ISZERO ISZERO MUL OR SWAP1 SSTORE POP POP POP JUMP JUMPDEST PUSH0 PUSH1 0x20 MSTORE DUP1 PUSH0 MSTORE PUSH1 0x40 PUSH0 KECCAK256 PUSH0 SWAP2 POP SWAP1 POP DUP1 PUSH0 ADD DUP1 SLOAD PUSH2 0x328 SWAP1 PUSH2 0x933 JUMP JUMPDEST DUP1 PUSH1 0x1F ADD PUSH1 0x20 DUP1 SWAP2 DIV MUL PUSH1 0x20 ADD PUSH1 0x40 MLOAD SWAP1 DUP2 ADD PUSH1 0x40 MSTORE DUP1 SWAP3 SWAP2 SWAP1 DUP2 DUP2 MSTORE PUSH1 0x20 ADD DUP3 DUP1 SLOAD PUSH2 0x354 SWAP1 PUSH2 0x933 JUMP JUMPDEST DUP1 ISZERO PUSH2 0x39F JUMPI DUP1 PUSH1 0x1F LT PUSH2 0x376 JUMPI PUSH2 0x100 DUP1 DUP4 SLOAD DIV MUL DUP4 MSTORE SWAP2 PUSH1 0x20 ADD SWAP2 PUSH2 0x39F JUMP JUMPDEST DUP3 ADD SWAP2 SWAP1 PUSH0 MSTORE PUSH1 0x20 PUSH0 KECCAK256 SWAP1 JUMPDEST DUP2 SLOAD DUP2 MSTORE SWAP1 PUSH1 0x1 ADD SWAP1 PUSH1 0x20 ADD DUP1 DUP4 GT PUSH2 0x382 JUMPI DUP3 SWAP1 SUB PUSH1 0x1F AND DUP3 ADD SWAP2 JUMPDEST POP POP POP POP POP SWAP1 DUP1 PUSH1 0x1 ADD DUP1 SLOAD PUSH2 0x3B4 SWAP1 PUSH2 0x933 JUMP JUMPDEST DUP1 PUSH1 0x1F ADD PUSH1 0x20 DUP1 SWAP2 DIV MUL PUSH1 0x20 ADD PUSH1 0x40 MLOAD SWAP1 DUP2 ADD PUSH1 0x40 MSTORE DUP1 SWAP3 SWAP2 SWAP1 DUP2 DUP2 MSTORE PUSH1 0x20 ADD DUP3 DUP1 SLOAD PUSH2 0x3E0 SWAP1 PUSH2 0x933 JUMP JUMPDEST DUP1 ISZERO PUSH2 0x42B JUMPI DUP1 PUSH1 0x1F LT PUSH2 0x402 JUMPI PUSH2 0x100 DUP1 DUP4 SLOAD DIV MUL DUP4 MSTORE SWAP2 PUSH1 0x20 ADD SWAP2 PUSH2 0x42B JUMP JUMPDEST DUP3 ADD SWAP2 SWAP1 PUSH0 MSTORE PUSH1 0x20 PUSH0 KECCAK256 SWAP1 JUMPDEST DUP2 SLOAD DUP2 MSTORE SWAP1 PUSH1 0x1 ADD SWAP1 PUSH1 0x20 ADD DUP1 DUP4 GT PUSH2 0x40E JUMPI DUP3 SWAP1 SUB PUSH1 0x1F AND DUP3 ADD SWAP2 JUMPDEST POP POP POP POP POP SWAP1 DUP1 PUSH1 0x2 ADD SLOAD SWAP1 DUP1 PUSH1 0x3 ADD PUSH0 SWAP1 SLOAD SWAP1 PUSH2 0x100 EXP SWAP1 DIV PUSH20 0xFFFFFFFFFFFFFFFFFFFFFFFFFFFFFFFFFFFFFFFF AND SWAP1 POP DUP5 JUMP JUMPDEST PUSH0 PUSH1 0x40 MLOAD SWAP1 POP SWAP1 JUMP JUMPDEST PUSH0 DUP1 REVERT JUMPDEST PUSH0 DUP1 REVERT JUMPDEST PUSH0 DUP1 REVERT JUMPDEST PUSH0 DUP1 REVERT JUMPDEST PUSH0 PUSH1 0x1F NOT PUSH1 0x1F DUP4 ADD AND SWAP1 POP SWAP2 SWAP1 POP JUMP JUMPDEST PUSH32 0x4E487B7100000000000000000000000000000000000000000000000000000000 PUSH0 MSTORE PUSH1 0x41 PUSH1 0x4 MSTORE PUSH1 0x24 PUSH0 REVERT JUMPDEST PUSH2 0x4BF DUP3 PUSH2 0x479 JUMP JUMPDEST DUP2 ADD DUP2 DUP2 LT PUSH8 0xFFFFFFFFFFFFFFFF DUP3 GT OR ISZERO PUSH2 0x4DE JUMPI PUSH2 0x4DD PUSH2 0x489 JUMP JUMPDEST JUMPDEST DUP1 PUSH1 0x40 MSTORE POP POP POP JUMP JUMPDEST PUSH0 PUSH2 0x4F0 PUSH2 0x460 JUMP JUMPDEST SWAP1 POP PUSH2 0x4FC DUP3 DUP3 PUSH2 0x4B6 JUMP JUMPDEST SWAP2 SWAP1 POP JUMP JUMPDEST PUSH0 PUSH8 0xFFFFFFFFFFFFFFFF DUP3 GT ISZERO PUSH2 0x51B JUMPI PUSH2 0x51A PUSH2 0x489 JUMP JUMPDEST JUMPDEST PUSH2 0x524 DUP3 PUSH2 0x479 JUMP JUMPDEST SWAP1 POP PUSH1 0x20 DUP2 ADD SWAP1 POP SWAP2 SWAP1 POP JUMP JUMPDEST DUP3 DUP2 DUP4 CALLDATACOPY PUSH0 DUP4 DUP4 ADD MSTORE POP POP POP JUMP JUMPDEST PUSH0 PUSH2 0x551 PUSH2 0x54C DUP5 PUSH2 0x501 JUMP JUMPDEST PUSH2 0x4E7 JUMP JUMPDEST SWAP1 POP DUP3 DUP2 MSTORE PUSH1 0x20 DUP2 ADD DUP5 DUP5 DUP5 ADD GT ISZERO PUSH2 0x56D JUMPI PUSH2 0x56C PUSH2 0x475 JUMP JUMPDEST JUMPDEST PUSH2 0x578 DUP5 DUP3 DUP6 PUSH2 0x531 JUMP JUMPDEST POP SWAP4 SWAP3 POP POP POP JUMP JUMPDEST PUSH0 DUP3 PUSH1 0x1F DUP4 ADD SLT PUSH2 0x594 JUMPI PUSH2 0x593 PUSH2 0x471 JUMP JUMPDEST JUMPDEST DUP2 CALLDATALOAD PUSH2 0x5A4 DUP5 DUP3 PUSH1 0x20 DUP7 ADD PUSH2 0x53F JUMP JUMPDEST SWAP2 POP POP SWAP3 SWAP2 POP POP JUMP JUMPDEST PUSH0 DUP2 SWAP1 POP SWAP2 SWAP1 POP JUMP JUMPDEST PUSH2 0x5BF DUP2 PUSH2 0x5AD JUMP JUMPDEST DUP2 EQ PUSH2 0x5C9 JUMPI PUSH0 DUP1 REVERT JUMPDEST POP JUMP JUMPDEST PUSH0 DUP2 CALLDATALOAD SWAP1 POP PUSH2 0x5DA DUP2 PUSH2 0x5B6 JUMP JUMPDEST SWAP3 SWAP2 POP POP JUMP JUMPDEST PUSH0 DUP1 PUSH0 PUSH1 0x60 DUP5 DUP7 SUB SLT ISZERO PUSH2 0x5F7 JUMPI PUSH2 0x5F6 PUSH2 0x469 JUMP JUMPDEST JUMPDEST PUSH0 DUP5 ADD CALLDATALOAD PUSH8 0xFFFFFFFFFFFFFFFF DUP2 GT ISZERO PUSH2 0x614 JUMPI PUSH2 0x613 PUSH2 0x46D JUMP JUMPDEST JUMPDEST PUSH2 0x620 DUP7 DUP3 DUP8 ADD PUSH2 0x580 JUMP JUMPDEST SWAP4 POP POP PUSH1 0x20 DUP5 ADD CALLDATALOAD PUSH8 0xFFFFFFFFFFFFFFFF DUP2 GT ISZERO PUSH2 0x641 JUMPI PUSH2 0x640 PUSH2 0x46D JUMP JUMPDEST JUMPDEST PUSH2 0x64D DUP7 DUP3 DUP8 ADD PUSH2 0x580 JUMP JUMPDEST SWAP3 POP POP PUSH1 0x40 PUSH2 0x65E DUP7 DUP3 DUP8 ADD PUSH2 0x5CC JUMP JUMPDEST SWAP2 POP POP SWAP3 POP SWAP3 POP SWAP3 JUMP JUMPDEST PUSH0 DUP2 SWAP1 POP SWAP2 SWAP1 POP JUMP JUMPDEST PUSH2 0x67A DUP2 PUSH2 0x668 JUMP JUMPDEST DUP2 EQ PUSH2 0x684 JUMPI PUSH0 DUP1 REVERT JUMPDEST POP JUMP JUMPDEST PUSH0 DUP2 CALLDATALOAD SWAP1 POP PUSH2 0x695 DUP2 PUSH2 0x671 JUMP JUMPDEST SWAP3 SWAP2 POP POP JUMP JUMPDEST PUSH0 PUSH1 0x20 DUP3 DUP5 SUB SLT ISZERO PUSH2 0x6B0 JUMPI PUSH2 0x6AF PUSH2 0x469 JUMP JUMPDEST JUMPDEST PUSH0 PUSH2 0x6BD DUP5 DUP3 DUP6 ADD PUSH2 0x687 JUMP JUMPDEST SWAP2 POP POP SWAP3 SWAP2 POP POP JUMP JUMPDEST PUSH0 DUP2 ISZERO ISZERO SWAP1 POP SWAP2 SWAP1 POP JUMP JUMPDEST PUSH2 0x6DA DUP2 PUSH2 0x6C6 JUMP JUMPDEST DUP3 MSTORE POP POP JUMP JUMPDEST PUSH0 PUSH1 0x20 DUP3 ADD SWAP1 POP PUSH2 0x6F3 PUSH0 DUP4 ADD DUP5 PUSH2 0x6D1 JUMP JUMPDEST SWAP3 SWAP2 POP POP JUMP JUMPDEST PUSH0 PUSH20 0xFFFFFFFFFFFFFFFFFFFFFFFFFFFFFFFFFFFFFFFF DUP3 AND SWAP1 POP SWAP2 SWAP1 POP JUMP JUMPDEST PUSH0 PUSH2 0x722 DUP3 PUSH2 0x6F9 JUMP JUMPDEST SWAP1 POP SWAP2 SWAP1 POP JUMP JUMPDEST PUSH2 0x732 DUP2 PUSH2 0x718 JUMP JUMPDEST DUP2 EQ PUSH2 0x73C JUMPI PUSH0 DUP1 REVERT JUMPDEST POP JUMP JUMPDEST PUSH0 DUP2 CALLDATALOAD SWAP1 POP PUSH2 0x74D DUP2 PUSH2 0x729 JUMP JUMPDEST SWAP3 SWAP2 POP POP JUMP JUMPDEST PUSH0 DUP1 PUSH1 0x40 DUP4 DUP6 SUB SLT ISZERO PUSH2 0x769 JUMPI PUSH2 0x768 PUSH2 0x469 JUMP JUMPDEST JUMPDEST PUSH0 PUSH2 0x776 DUP6 DUP3 DUP7 ADD PUSH2 0x687 JUMP JUMPDEST SWAP3 POP POP PUSH1 0x20 PUSH2 0x787 DUP6 DUP3 DUP7 ADD PUSH2 0x73F JUMP JUMPDEST SWAP2 POP POP SWAP3 POP SWAP3 SWAP1 POP JUMP JUMPDEST PUSH0 DUP2 MLOAD SWAP1 POP SWAP2 SWAP1 POP JUMP JUMPDEST PUSH0 DUP3 DUP3 MSTORE PUSH1 0x20 DUP3 ADD SWAP1 POP SWAP3 SWAP2 POP POP JUMP JUMPDEST DUP3 DUP2 DUP4 MCOPY PUSH0 DUP4 DUP4 ADD MSTORE POP POP POP JUMP JUMPDEST PUSH0 PUSH2 0x7C3 DUP3 PUSH2 0x791 JUMP JUMPDEST PUSH2 0x7CD DUP2 DUP6 PUSH2 0x79B JUMP JUMPDEST SWAP4 POP PUSH2 0x7DD DUP2 DUP6 PUSH1 0x20 DUP7 ADD PUSH2 0x7AB JUMP JUMPDEST PUSH2 0x7E6 DUP2 PUSH2 0x479 JUMP JUMPDEST DUP5 ADD SWAP2 POP POP SWAP3 SWAP2 POP POP JUMP JUMPDEST PUSH2 0x7FA DUP2 PUSH2 0x5AD JUMP JUMPDEST DUP3 MSTORE POP POP JUMP JUMPDEST PUSH2 0x809 DUP2 PUSH2 0x718 JUMP JUMPDEST DUP3 MSTORE POP POP JUMP JUMPDEST PUSH0 PUSH1 0x80 DUP3 ADD SWAP1 POP DUP2 DUP2 SUB PUSH0 DUP4 ADD MSTORE PUSH2 0x827 DUP2 DUP8 PUSH2 0x7B9 JUMP JUMPDEST SWAP1 POP DUP2 DUP2 SUB PUSH1 0x20 DUP4 ADD MSTORE PUSH2 0x83B DUP2 DUP7 PUSH2 0x7B9 JUMP JUMPDEST SWAP1 POP PUSH2 0x84A PUSH1 0x40 DUP4 ADD DUP6 PUSH2 0x7F1 JUMP JUMPDEST PUSH2 0x857 PUSH1 0x60 DUP4 ADD DUP5 PUSH2 0x800 JUMP JUMPDEST SWAP6 SWAP5 POP POP POP POP POP JUMP JUMPDEST PUSH0 DUP2 SWAP1 POP SWAP3 SWAP2 POP POP JUMP JUMPDEST PUSH0 PUSH2 0x874 DUP3 PUSH2 0x791 JUMP JUMPDEST PUSH2 0x87E DUP2 DUP6 PUSH2 0x860 JUMP JUMPDEST SWAP4 POP PUSH2 0x88E DUP2 DUP6 PUSH1 0x20 DUP7 ADD PUSH2 0x7AB JUMP JUMPDEST DUP1 DUP5 ADD SWAP2 POP POP SWAP3 SWAP2 POP POP JUMP JUMPDEST PUSH0 DUP2 PUSH1 0x60 SHL SWAP1 POP SWAP2 SWAP1 POP JUMP JUMPDEST PUSH0 PUSH2 0x8B0 DUP3 PUSH2 0x89A JUMP JUMPDEST SWAP1 POP SWAP2 SWAP1 POP JUMP JUMPDEST PUSH0 PUSH2 0x8C1 DUP3 PUSH2 0x8A6 JUMP JUMPDEST SWAP1 POP SWAP2 SWAP1 POP JUMP JUMPDEST PUSH2 0x8D9 PUSH2 0x8D4 DUP3 PUSH2 0x718 JUMP JUMPDEST PUSH2 0x8B7 JUMP JUMPDEST DUP3 MSTORE POP POP JUMP JUMPDEST PUSH0 PUSH2 0x8EA DUP3 DUP6 PUSH2 0x86A JUMP JUMPDEST SWAP2 POP PUSH2 0x8F6 DUP3 DUP5 PUSH2 0x8C8 JUMP JUMPDEST PUSH1 0x14 DUP3 ADD SWAP2 POP DUP2 SWAP1 POP SWAP4 SWAP3 POP POP POP JUMP JUMPDEST PUSH32 0x4E487B7100000000000000000000000000000000000000000000000000000000 PUSH0 MSTORE PUSH1 0x22 PUSH1 0x4 MSTORE PUSH1 0x24 PUSH0 REVERT JUMPDEST PUSH0 PUSH1 0x2 DUP3 DIV SWAP1 POP PUSH1 0x1 DUP3 AND DUP1 PUSH2 0x94A JUMPI PUSH1 0x7F DUP3 AND SWAP2 POP JUMPDEST PUSH1 0x20 DUP3 LT DUP2 SUB PUSH2 0x95D JUMPI PUSH2 0x95C PUSH2 0x906 JUMP JUMPDEST JUMPDEST POP SWAP2 SWAP1 POP JUMP JUMPDEST PUSH0 DUP2 SWAP1 POP DUP2 PUSH0 MSTORE PUSH1 0x20 PUSH0 KECCAK256 SWAP1 POP SWAP2 SWAP1 POP JUMP JUMPDEST PUSH0 PUSH1 0x20 PUSH1 0x1F DUP4 ADD DIV SWAP1 POP SWAP2 SWAP1 POP JUMP JUMPDEST PUSH0 DUP3 DUP3 SHL SWAP1 POP SWAP3 SWAP2 POP POP JUMP JUMPDEST PUSH0 PUSH1 0x8 DUP4 MUL PUSH2 0x9BF PUSH32 0xFFFFFFFFFFFFFFFFFFFFFFFFFFFFFFFFFFFFFFFFFFFFFFFFFFFFFFFFFFFFFFFF DUP3 PUSH2 0x984 JUMP JUMPDEST PUSH2 0x9C9 DUP7 DUP4 PUSH2 0x984 JUMP JUMPDEST SWAP6 POP DUP1 NOT DUP5 AND SWAP4 POP DUP1 DUP7 AND DUP5 OR SWAP3 POP POP POP SWAP4 SWAP3 POP POP POP JUMP JUMPDEST PUSH0 DUP2 SWAP1 POP SWAP2 SWAP1 POP JUMP JUMPDEST PUSH0 PUSH2 0xA04 PUSH2 0x9FF PUSH2 0x9FA DUP5 PUSH2 0x5AD JUMP JUMPDEST PUSH2 0x9E1 JUMP JUMPDEST PUSH2 0x5AD JUMP JUMPDEST SWAP1 POP SWAP2 SWAP1 POP JUMP JUMPDEST PUSH0 DUP2 SWAP1 POP SWAP2 SWAP1 POP JUMP JUMPDEST PUSH2 0xA1D DUP4 PUSH2 0x9EA JUMP JUMPDEST PUSH2 0xA31 PUSH2 0xA29 DUP3 PUSH2 0xA0B JUMP JUMPDEST DUP5 DUP5 SLOAD PUSH2 0x990 JUMP JUMPDEST DUP3 SSTORE POP POP POP POP JUMP JUMPDEST PUSH0 SWAP1 JUMP JUMPDEST PUSH2 0xA45 PUSH2 0xA39 JUMP JUMPDEST PUSH2 0xA50 DUP2 DUP5 DUP5 PUSH2 0xA14 JUMP JUMPDEST POP POP POP JUMP JUMPDEST JUMPDEST DUP2 DUP2 LT ISZERO PUSH2 0xA73 JUMPI PUSH2 0xA68 PUSH0 DUP3 PUSH2 0xA3D JUMP JUMPDEST PUSH1 0x1 DUP2 ADD SWAP1 POP PUSH2 0xA56 JUMP JUMPDEST POP POP JUMP JUMPDEST PUSH1 0x1F DUP3 GT ISZERO PUSH2 0xAB8 JUMPI PUSH2 0xA89 DUP2 PUSH2 0x963 JUMP JUMPDEST PUSH2 0xA92 DUP5 PUSH2 0x975 JUMP JUMPDEST DUP2 ADD PUSH1 0x20 DUP6 LT ISZERO PUSH2 0xAA1 JUMPI DUP2 SWAP1 POP JUMPDEST PUSH2 0xAB5 PUSH2 0xAAD DUP6 PUSH2 0x975 JUMP JUMPDEST DUP4 ADD DUP3 PUSH2 0xA55 JUMP JUMPDEST POP POP JUMPDEST POP POP POP JUMP JUMPDEST PUSH0 DUP3 DUP3 SHR SWAP1 POP SWAP3 SWAP2 POP POP JUMP JUMPDEST PUSH0 PUSH2 0xAD8 PUSH0 NOT DUP5 PUSH1 0x8 MUL PUSH2 0xABD JUMP JUMPDEST NOT DUP1 DUP4 AND SWAP2 POP POP SWAP3 SWAP2 POP POP JUMP JUMPDEST PUSH0 PUSH2 0xAF0 DUP4 DUP4 PUSH2 0xAC9 JUMP JUMPDEST SWAP2 POP DUP3 PUSH1 0x2 MUL DUP3 OR SWAP1 POP SWAP3 SWAP2 POP POP JUMP JUMPDEST PUSH2 0xB09 DUP3 PUSH2 0x791 JUMP JUMPDEST PUSH8 0xFFFFFFFFFFFFFFFF DUP2 GT ISZERO PUSH2 0xB22 JUMPI PUSH2 0xB21 PUSH2 0x489 JUMP JUMPDEST JUMPDEST PUSH2 0xB2C DUP3 SLOAD PUSH2 0x933 JUMP JUMPDEST PUSH2 0xB37 DUP3 DUP3 DUP6 PUSH2 0xA77 JUMP JUMPDEST PUSH0 PUSH1 0x20 SWAP1 POP PUSH1 0x1F DUP4 GT PUSH1 0x1 DUP2 EQ PUSH2 0xB68 JUMPI PUSH0 DUP5 ISZERO PUSH2 0xB56 JUMPI DUP3 DUP8 ADD MLOAD SWAP1 POP JUMPDEST PUSH2 0xB60 DUP6 DUP3 PUSH2 0xAE5 JUMP JUMPDEST DUP7 SSTORE POP PUSH2 0xBC7 JUMP JUMPDEST PUSH1 0x1F NOT DUP5 AND PUSH2 0xB76 DUP7 PUSH2 0x963 JUMP JUMPDEST PUSH0 JUMPDEST DUP3 DUP2 LT ISZERO PUSH2 0xB9D JUMPI DUP5 DUP10 ADD MLOAD DUP3 SSTORE PUSH1 0x1 DUP3 ADD SWAP2 POP PUSH1 0x20 DUP6 ADD SWAP5 POP PUSH1 0x20 DUP2 ADD SWAP1 POP PUSH2 0xB78 JUMP JUMPDEST DUP7 DUP4 LT ISZERO PUSH2 0xBBA JUMPI DUP5 DUP10 ADD MLOAD PUSH2 0xBB6 PUSH1 0x1F DUP10 AND DUP3 PUSH2 0xAC9 JUMP JUMPDEST DUP4 SSTORE POP JUMPDEST PUSH1 0x1 PUSH1 0x2 DUP9 MUL ADD DUP9 SSTORE POP POP POP JUMPDEST POP POP POP POP POP POP JUMP JUMPDEST PUSH32 0x4E6F7420746865206F776E657200000000000000000000000000000000000000 PUSH0 DUP3 ADD MSTORE POP JUMP JUMPDEST PUSH0 PUSH2 0xC03 PUSH1 0xD DUP4 PUSH2 0x79B JUMP JUMPDEST SWAP2 POP PUSH2 0xC0E DUP3 PUSH2 0xBCF JUMP JUMPDEST PUSH1 0x20 DUP3 ADD SWAP1 POP SWAP2 SWAP1 POP JUMP JUMPDEST PUSH0 PUSH1 0x20 DUP3 ADD SWAP1 POP DUP2 DUP2 SUB PUSH0 DUP4 ADD MSTORE PUSH2 0xC30 DUP2 PUSH2 0xBF7 JUMP JUMPDEST SWAP1 POP SWAP2 SWAP1 POP JUMP INVALID LOG2 PUSH5 0x6970667358 0x22 SLT KECCAK256 0x21 CHAINID TSTORE CALLDATALOAD 0xDE ADD SWAP12 EXTCODEHASH SWAP12 BLOBHASH 0x4F 0x2E ORIGIN 0xAE 0xF9 0x28 0xEF PUSH18 0x28D13907061969CEC6BF0657329C64736F6C PUSH4 0x4300081A STOP CALLER "
		},
		"gasEstimates": {
			"creation": {
				"codeDepositCost": "636200",
				"executionCost": "668",
				"totalCost": "636868"
			},
			"external": {
				"checkAccess(bytes32)": "2903",
				"files(bytes32)": "infinite",
				"grantAccess(bytes32,address)": "27329",
				"uploadFile(string,string,uint256)": "infinite"
			}
		},
		"methodIdentifiers": {
			"checkAccess(bytes32)": "36c98677",
			"files(bytes32)": "98c9adff",
			"grantAccess(bytes32,address)": "40554c3a",
			"uploadFile(string,string,uint256)": "2419c0db"
		}
	},
	"abi": [
		{
			"inputs": [
				{
					"internalType": "bytes32",
					"name": "fileId",
					"type": "bytes32"
				}
			],
			"name": "checkAccess",
			"outputs": [
				{
					"internalType": "bool",
					"name": "",
					"type": "bool"
				}
			],
			"stateMutability": "view",
			"type": "function"
		},
		{
			"inputs": [
				{
					"internalType": "bytes32",
					"name": "",
					"type": "bytes32"
				}
			],
			"name": "files",
			"outputs": [
				{
					"internalType": "string",
					"name": "fileHash",
					"type": "string"
				},
				{
					"internalType": "string",
					"name": "fileName",
					"type": "string"
				},
				{
					"internalType": "uint256",
					"name": "fileSize",
					"type": "uint256"
				},
				{
					"internalType": "address",
					"name": "owner",
					"type": "address"
				}
			],
			"stateMutability": "view",
			"type": "function"
		},
		{
			"inputs": [
				{
					"internalType": "bytes32",
					"name": "fileId",
					"type": "bytes32"
				},
				{
					"internalType": "address",
					"name": "_user",
					"type": "address"
				}
			],
			"name": "grantAccess",
			"outputs": [],
			"stateMutability": "nonpayable",
			"type": "function"
		},
		{
			"inputs": [
				{
					"internalType": "string",
					"name": "_fileHash",
					"type": "string"
				},
				{
					"internalType": "string",
					"name": "_fileName",
					"type": "string"
				},
				{
					"internalType": "uint256",
					"name": "_fileSize",
					"type": "uint256"
				}
			],
			"name": "uploadFile",
			"outputs": [],
			"stateMutability": "nonpayable",
			"type": "function"
		}
	]
}